:020000040000FA
:1000000000000320250400005104000055040000F6
:100010004D0400004D0400004D04000000000000ED
:10002000000000000000000000000000713000002F
:100030004D04000000000000712C0000A1340000FD
:1000400065040000690400006D04000071040000F4
:1000500075040000790400007D04000081040000A4
:1000600085040000890400008D0400009104000054
:1000700095040000990400009D040000A104000004
:10008000A50400004D0400004D0400004D040000D4
:100090004D0400004D0400004D0400004D0400001C
:1000A000A9040000AD040000B1040000B504000084
:1000B000B9040000BD040000C1040000C504000034
:1000C000C9040000CD040000D1040000D5040000E4
:1000D000D9040000DD040000E10400004D0400002C
:1000E0004D0400004D0400004D0400004D040000CC
:1000F0004D0400004D0400004D0400004D040000BC
:100100004D0400004D0400004D0400004D040000AB
:100110004D0400004D0400004D0400004D0400009B
:100120004D0400004D0400004D0400004D0400008B
:100130004D0400004D0400004D0400004D0400007B
:100140004D040000E5040000E9040000ED04000097
:10015000F1040000F50400004D0400004D0400000F
:100160004D0400004D040000F9040000FD040000EF
:100170000105000005050000090500000D0500004F
:100180001105000015050000190500001D050000FF
:1001900021050000250500004D0400004D0400006D
:1001A0004D0400004D0400004D0400004D0400000B
:1001B0004D0400004D0400004D0400004D040000FB
:1001C0004D0400004D0400004D0400004D040000EB
:1001D0004D0400004D0400004D0400004D040000DB
:1003F0004D0400004D0400004D040000FFFFFFFF0E
:10040000FFFFFFFFFFFFFFFFFFFFFFFFFEFFFFFFFD
:10041000DFF80CD000F0BCF900480047C57C0000B4
:100420000000032072B60548054901600A6882F39E
:1004300008880448804762B60348004708ED00E09A
:1004400000000000D134000011040000FFF7FEBFDF
:10045000354800473548004735480047354800478C
:10046000354800473548004735480047354800477C
:10047000354800473548004735480047354800476C
:10048000354800473548004735480047354800475C
:10049000354800473548004735480047354800474C
:1004A000354800473548004735480047354800473C
:1004B000354800473548004735480047354800472C
:1004C000354800473548004735480047354800471C
:1004D000354800473548004735480047354800470C
:1004E00035480047354800473548004735480047FC
:1004F00035480047354800473548004735480047EC
:1005000035480047354800473548004735480047DB
:1005100035480047354800473548004735480047CB
:100520003548004735480047510400005504000095
:1005300071300000712C0000A13400004D04000057
:100540004D0400004D0400004D0400004D04000067
:100550004D0400004D0400004D0400004D04000057
:100560004D0400004D0400004D0400004D04000047
:100570004D0400004D0400004D0400004D04000037
:100580004D0400004D0400004D0400004D04000027
:100590004D0400004D0400004D0400003135000002
:1005A0004D040000653500004D0400009935000041
:1005B0004D040000CD3500004D0400004D04000046
:1005C000013600004D040000353600004D040000E7
:1005D0004D0400004D0400004D0400004D040000D7
:1005E0004D0400004D0400004D0400004D040000C7
:1005F000D112000045250000ED190000191400007B
:100600002DE9F05F0546002092469B468846064647
:10061000814640241BE0284641464746224600F0DA
:10062000A7F853465A46C01A914110D311461846AE
:10063000224600F08EF82D1A67EB01084F4622463D
:100640000120002100F085F817EB00094E41201E23
:10065000A4F10104DFDC484631462A464346BDE8A2
:10066000F09F2DE9F0410024061B254671F100069C
:1006700005DA01240027D0EB070067EB0101161E05
:1006800073F1000605DA0027D2EB0702012567EBBC
:100690000303FFF7B5FF86460E4617469C46AC425D
:1006A00004D00025D0EB050E65EB010624B1002037
:1006B000D2EB000760EB030C704631463A466346C6
:1006C000BDE8F08110B5441A0346944209D283185C
:1006D000114403E011F8014D03F8014D521EF9D207
:1006E00010BD40EA0104A40703D009E010C9121F9D
:1006F00010C3042AFAD203E011F8014B03F8014BAE
:10070000521EF9D210BDD2B201E000F8012B491EF1
:10071000FBD270470022F6E710B513460A4604469E
:100720001946FFF7F0FF204610BD421C10F8011BD0
:100730000029FBD1801A704730B5044600200346DB
:1007400000E05B1C934203D2E05CCD5C401BF8D020
:1007500030BD202A04DB203A00FA02F10020704765
:100760009140C2F1200320FA03F3194390407047EF
:10077000202A04DB203A21FA02F00021704721FAF6
:1007800002F3D040C2F1200291400843194670475D
:10079000064C074D06E0E06840F0010394E80700CE
:1007A00098471034AC42F6D3FFF736FEBC2C01005C
:1007B000DC2C010080B500F043FC41F61060C0F273
:1007C000010000F04BFB00F043FC0220002100225E
:1007D00000F098FB00F0C0F841F6FC40C0F20100C8
:1007E00000F108020020002100F090F841F66C6052
:1007F000C0F2010000F014FC40F2080040F6006175
:10080000C2F20000C0F22771016080BD80B5FFF721
:10081000D1FF80BD80B500F00DF880BD80B500F03F
:1008200001F9034600204FF4E131012200F086FC7B
:1008300080BD0000B0B582B00924C1F23804204662
:1008400000F094F8601C00F091F8A01C00F08EF805
:1008500049F20004C4F2040420460C21042202F0F0
:10086000FBF920460D21042202F0F6F920460E2164
:10087000042202F0F1F920460F21042202F0ECF9E3
:1008800020461021042202F0E7F92046112104221B
:1008900002F0E2F920460521042202F0DDF940F2DF
:1008A0002340ADF806000DF1060002F0A5F94AF26A
:1008B0000005C4F2040528460121042202F0CCF907
:1008C00028461021032202F0C7F9284611210322ED
:1008D00002F0C2F905F5805528461021042202F0E5
:1008E000BBF928461121042202F0B6F9284612214C
:1008F000042202F0B1F94FF21000CFF6FF70215838
:1009000021F00301215002B0B0BD0000B0B5B2B17A
:1009100044F200051446C4F2060500F0D5FA0020A2
:10092000214600F039FB287800F03F00287000BF16
:10093000A87900F00C000C28FAD10020B0BD42F6D6
:100940004F3042F61931C0F20100C0F2010140F609
:10095000820202F0D1FF000044F20000C4F206005F
:10096000017801F0C70101707047000047F20003F1
:10097000010CC4F2040380B24FF0010CCA580CFA07
:1009800000F01043C850704747F20003010CC4F256
:10099000040380B24FF0010CCA580CFA00F0104367
:1009A000C850704748F22C00C4F20400016841F0BE
:1009B000010101607047000047F20003010CC4F21E
:1009C000040380B24FF0010CCA580CFA00F0104337
:1009D000C8507047D0B1437844F20401C4F2060114
:1009E00003F01F03027880780B704B7800F01F0033
:1009F00003F0E003184448700878104340F04000CA
:100A0000087000BF88784006FCD5704742F64F302A
:100A100042F61931C0F20100C0F2010140F2F93290
:100A200002F06AFF80B500F0BBF948F24401C4F25D
:100A300004010968012202EB1171B0FBF1F080BDE5
:100A400080B547F20000C4F204000068C0F38140A2
:100A500003280ED002280FD000281CBF002080BD24
:100A600000F06AF9A0F50040B0FA80F04009C00338
:100A700080BD4FF47A7080BD45F2CC60C2F20000B8
:100A8000016800291CBF006880BD42F6193103A02F
:100A9000C0F201014FF4C17202F02EFF675F78745B
:100AA000616C3332467265710000000010B500F0D1
:100AB00067F8044600F074F9B4EBD00F204688BF05
:100AC0000020002C08BF204610BD000080B500F0BB
:100AD000E9F844F20003C4F206031A7859781B7B44
:100AE000C2F3C20C03F0030311F0300218BF01225D
:100AF000022B20FA0CF005D0B3FA83F1490911401A
:100B000008BF80BDBCF1060F3CBF400980BD07D1C6
:100B10004CF6CD41CCF6CC41A0FB0101080980BDCB
:100B20004AF6AB21CAF6AA21A0FB0101C80880BD84
:100B300010B544F20304C4F2060414F8020C800752
:100B40005CBFE0785FEA806001D5002010BD00F056
:100B500017F80028F9D021782278C1F3411104A3B5
:100B6000C2F3C01203EB810131F81210484310BDEB
:100B70008002DC020005B80580079508000A710BA9
:100B800080B544F20600C4F206000078C00602D424
:100B9000FFF79CFF80BD40F22C00C2F2000000680D
:100BA00080BD000080B513283ED8014646F60040BF
:100BB000C0F2DC20DFE801F00A0A17212B383A3DA9
:100BC0004038384346494C383838394F00F0E8F857
:100BD00048F24401C4F204010968012202EB1171D8
:100BE000B0FBF1F080BD00F0DBF848F24401C4F244
:100BF00004010968C1F3036112E000F0D1F848F282
:100C00004401C4F204010968C1F3035108E000F093
:100C1000C7F848F24401C4F204010968C1F3034172
:100C20000131B0FBF1F080BD002080BD00F0FCF888
:100C300080BDFFF705FF80BD00F07EF880BDFFF7A7
:100C400035FF80BD00F00AF880BDFFF771FF80BD61
:100C500000F0BEF880BD4FF47A7080BD80B544F2DC
:100C60000000C4F206000078800754BF002000F0A6
:100C700001F880BD44F20600C4F206000178C907FD
:100C800005D140F22C00C2F200000068704740F22B
:100C90002801C2F2000109688078C0F3420021FAFD
:100CA00000F0704744F20C00C4F20600007800F037
:100CB0000300022816D0012819D000281CBF0020EC
:100CC000704745F2C860C2F20000016800291CBFED
:100CD0000068704742F6193112A0C0F20101DA2211
:100CE00002F00AFE46F60040C0F2DC20704745F2F2
:100CF000CC60C2F20000016800291CBF0068704788
:100D000042F6193102A0C0F20101DF2202F0F4FD27
:100D1000305520213D20675F7874616C3332467214
:100D200065710000305520213D20675F7874616C4B
:100D3000304672657100000045F20000C4F2060002
:100D400090F90000B0F1FF3FC4BF0020704745F2AA
:100D5000C860C2F20000016800291CBF006870472B
:100D600042F6193103A0C0F2010140F2671202F00D
:100D7000C3FD00BF675F7874616C304672657100B7
:100D800049F6980188423CBF0020704741F2012299
:100D9000C0F27A020221904238BF01210846704712
:100DA00080B544F20600C4F206000078C0F381006A
:100DB000DFE800F0020B0508FFF7BAFE80BDFFF781
:100DC00071FF80BD00F004F880BDFFF753FF80BDC8
:100DD00010B544F20404C4F20604A07840065CBFD7
:100DE000002010BD00F01CF858B12178627801F0A5
:100DF0001F010131B0FBF1F002F01F01183148432F
:100E000010BD42F6193103A0C0F2010140F2F922EF
:100E100002F072FD6D6367706C6C30636C6B000088
:100E200080B5FFF73FFF80BD80B548F20400C4F2F3
:100E300004000068C0F30140032807D001280AD04D
:100E4000002814BF0020FFF773FE80BD46F6004067
:100E5000C0F2DC2080BDFFF7BBFF80BD70B504464B
:100E6000006844F20106C4F20606FFF789FF217903
:100E70000546084601F0D0FC307805F0030100F08B
:100E8000C300627940EA011010433070A01D01F0E8
:100E9000CDFC607968B145F20000C4F2060090F91B
:100EA0000000B0F1FF3FC8BF70BD00BF7079800780
:100EB000FCD570BD47F20001C4F204010A6860F37A
:100EC00093420A607047000044F20C0CC4F2060C16
:100ED0009CF800209CF8003002F0030203F0FC03B1
:100EE00000F00301194482428CF8001007D04FF63D
:100EF0002420CFF6FF7000BF013000BFFCD30020DC
:100F00007047000070B544F20103C4F206035D7936
:100F100093F805E0DC79C5F3810CC4F342049442F4
:100F20001FD013F8016CBCF1010418BF01245FEA63
:100F3000CE750ED006F00206012585EA560626403B
:100F400007D11E7806F0FE061E7000BF5E79F60718
:100F5000FCD1DE7902F0070206F0D00646EA420232
:100F6000DA711A7801F0010602F0FE0232441A70BA
:100F700013F8012C02F0FC020243800703F8012C55
:100F800002D4BCF1010F04D1587900F0010088426D
:100F9000FAD1002070BD000010B551B344F2050431
:100FA000C4F2060414F8040C00F0FD0004F8040C6C
:100FB00014F8050C00F03B00803004F8050C00BF6D
:100FC000607800F01C000828FAD1207800F0BF00FB
:100FD000207000BF60788006FCD40846FFF7FAFC5A
:100FE000207840F04000207060788006FCD500201A
:100FF00010BD42F64F3042F61931C0F20100C0F286
:10100000010140F2697202F077FC000048F204012D
:10101000C4F204010A6860F311420A6070470000DC
:1010200010B50446406848F24401C4F20401086067
:101030002078FFF7EBFF6078FFF73CFF10BD000062
:1010400048F24400C4F204004FF09271016070470E
:1010500045F2C8604FF28001C2F20000C0F2FA21EE
:10106000016070472DE9F04F81B08146002009F8FA
:10107000010BD1E900679A46FAB156EA070055D04C
:101080004FF0FF34304639465246002309EB040541
:10109000FFF7E7FAA0FB0A2301FB0A33B21A77EB4A
:1010A000030348BF524230326A7050EA010204F131
:1010B000010406460F46E5D134E056EA070035D074
:1010C0000A984FF057084FF0FF34002818BF4FF030
:1010D000370800BF304639465246002309EB040B5F
:1010E000FFF78EFAA0FB0A2301FB0A33B21A67EB63
:1010F0000303B2F10A0573F100034FF0000338BF98
:10110000012308EB0205002B18BF02F13005B6EBF6
:101110000A0277F1000204F1010406460F468BF83B
:101120000150D7D2601C01B0BDE8F08F302089F8A3
:101130000000012001B0BDE8F08F000010B588B0BC
:10114000CDE900310021C0F20111029100218DF89A
:101150000E0048F64170012AADF80C108DF81820E9
:10116000ADF81A0011BF43F22150684607900020E5
:10117000012A2AD14DF6AC54C2F2000420460021C7
:101180002022FFF7C9FA201D04A9206001F082FF88
:1011900008B100BFFEE74DF6A850C2F2000000788B
:1011A000214651F8180B01F0B1FF00B1FEE72146CE
:1011B00051F81C0B01F08AFF08B100BFFEE721685F
:1011C00045F2C462C2F20002116008B010BD000016
:1011D0002DE9F041012BB8BFBDE8F0811C46154652
:1011E0000E4607464FF0000808E000BF3068013C9B
:1011F0003D54306800F10100306009D03168481C6E
:101200008028F3D3384600F015F8C6F80080EDE7E3
:10121000BDE8F08183B080B581B00DF10C0C8CE895
:101220000E0003A9009100F025F801B0BDE8804050
:1012300003B07047E0B110B502460C464FF0000015
:10124000A9B145F2C461C2F200010968002908BFD2
:1012500010BD4DF6AC50C2F20000183011462246C7
:1012600001F088FF002818BF4FF0FF34204610BD62
:10127000FEE7000070B5A0B00C4605466846802128
:10128000FFF748FA45F2C460C2F20000006878B186
:1012900041F2D1136E46C0F2000328462146324681
:1012A00001F08AFF01463046FFF7C4FF20B070BD51
:1012B000002020B070BD0000EFF31080EFF310812C
:1012C00072B67047EFF31080EFF3108172B670477B
:1012D00080B50020C4F20C0000F052FBBFF34F8F2A
:1012E00080BD00004FF0807101617047002901BF8F
:1012F000BFF34F8F4FF080710161704742F67E104F
:1013000042F69D21C0F20100C0F201014FF4826259
:1013100002F0F2FA002901BFBFF34F8F00214161B3
:10132000704742F67E1042F69D21C0F20100C0F2E5
:10133000010140F2354202F0DFFA00004FF40001F3
:1013400041607047816821F0007181607047000042
:10135000816841F00071816070470000826811432C
:1013600081607047416A21F00C01416270470000C2
:1013700010B5044600F076F84DF6CC50C2F20000ED
:101380000268002A08BF10BD4DF6A450C2F200004A
:1013900001682046904710BDB0B582B081B30546C4
:1013A00040680C46800315D468680021C6F27C01B1
:1013B00008406860D4F81CC0BCF1000F08D0D4F815
:1013C00020E02846214602220023CDF800E0E04735
:1013D00002B0B0BD4FF4003068602846FFF7C2FF8E
:1013E000D4F81CC0BCF1000FF2D0D4F820E028469D
:1013F000214603220023CDF800E0E04702B0B0BD53
:1014000042F6302042F69D21C0F20100C0F20101F7
:1014100040F6AF5202F070FA80B50020C4F20C0022
:10142000FFF7A6FFBFF34F8F80BD000010B568B176
:10143000002128220446FFF76FF901202073A075D0
:1014400040F2EE50C0F20110A06010BD42F67E20C6
:1014500042F69D21C0F20100C0F20101CE2202F04D
:101460004BFA000000210123C4F20C0188421A4605
:1014700003D0D3074FF00003F8D1D0071CBF0020E2
:10148000704742F69D2103A0C0F20101B82202F08C
:1014900033FA00BF696E7374616E6365203C20414E
:1014A000525241595F53495A4528735F656E6574BE
:1014B0004261736573290000406870472DE9F04F61
:1014C00085B00029049000F015819846002B40F06B
:1014D0001D818A4651F83810002900F02381002A26
:1014E00000F02C8110680192002800F030810AEB96
:1014F000C806B3463BF8040F01EBC002B2F9021074
:10150000009600291AD4B71D019E4FF0FF3400BF8A
:101510005188090572D4398880B200F07DF9BBF892
:101520000010884271D05AF8381001EBC002B2F9AD
:101530000210A142ECDC4FF0000968E040F6A3790C
:10154000B9F1000F67D156F8060BBBF800100296F0
:10155000019E00EBC104002700204FF0000903901A
:1015600021E000BF01EBC2018B8003992E46194494
:1015700003916060608809F1010900F40050608007
:10158000608840F4004060800299BBF80000098840
:1015900000F042F95AF83810FA0701EBC004ABF832
:1015A000000040F09D80DAF82010DAF8343004981A
:1015B00042469847002856D0316863681FFA89F27E
:1015C00041F832303546668823883605CAD5AB8067
:1015D0002388039F01EBC201DB1B8B800021A971D3
:1015E00004992E46D1F88410090701D40127C0E7D9
:1015F00061880127C90548BFB771BAE706F108013C
:10160000104600F0C5F8814601E040F6A379009E3F
:10161000B9F1000F97D040F6A170814566D156F818
:10162000060BBBF80010002400EBC1004188428883
:1016300001F4006302F400524280428844EAD32459
:1016400042F400414180BBF80000318800F0E4F82A
:101650005AF83810ABF80000E20701EBC000E5D003
:1016600040F6A1793EE05FEA0940049816D01FFADF
:1016700089F26FF00701334601EBC2061968DAF808
:101680002020DAF838C031441D4643468146E04701
:10169000083E2B46484616F10801EFD1009800F1AC
:1016A000060900BF6088618800F4006201F40051FF
:1016B0006180618847EAD22741F400406080BBF82E
:1016C0000000B9F8001000F0A7F85AF83810FA072F
:1016D00001EBC004ABF80000E4D040F6A47901E0CF
:1016E0004FF0000904984146FFF700FE484605B058
:1016F000BDE8F08F42F6302042F69D21C0F2010095
:10170000C0F2010140F6411202F0F6F842F6FA107A
:1017100042F69D21C0F20100C0F2010140F64212E2
:1017200002F0EAF842F63F2042F69D21C0F20100A5
:10173000C0F2010140F6431202F0DEF842F69D21AC
:101740000FA0C0F2010140F6441202F0D5F842F6B3
:101750009D2103A0C0F2010140F6451202F0CCF831
:1017600072784672616D652D3E727842756666418B
:101770007272617920213D204E554C4C00000000D2
:1017800072784672616D6520213D204E554C4C00AB
:1017900070B582B098B10C46D1B1468801A800213D
:1017A00004220025FEF7B8FF16F0370F1CBF019684
:1017B00040F6A17501992846216002B070BD42F63D
:1017C0009D210EA0C0F2010140F6FF0202F094F844
:1017D00042F69D2103A0C0F201014FF4106202F015
:1017E0008BF800BF72784672616D654572726F72D8
:1017F00020213D204E554C4C00000000727844657D
:10180000736320213D204E554C4C0000406C10F07D
:101810007E0018BF01207047884206D2013082B294
:101820008A4228BF002080B2704742F69D2103A063
:10183000C0F2010140F2765202F05EF8696E646512
:1018400078203C206D6178002DE9F04383B0DDE91C
:101850000A891C4615460E460746FFF703FEFFF7AA
:10186000A1F8384600F040F9384631462A4623466A
:10187000CDF80080CDF8049000F088FE03B0BDE8FC
:10188000F0830000B0B5056804462846FFF7EAFD7E
:1018900041F65061C0F2010151F82000FFF774F8E1
:1018A00061682846002200F021FDB0BDF0B581B08E
:1018B000CBB107681C46384615460E46FFF73EFD7D
:1018C000384631462A46022300F0DCFD384600F057
:1018D00035F8384600F058F820603846FFF72EFDFE
:1018E000002001B0F0BD02A005A1552202F004F8CD
:1018F0006461746150747220213D204E554C4C003F
:101900002E2E2F2E2E2F2E2E2F2E2E2F2E2E2F2EF2
:101910002E2F636F6D706F6E656E74732F706879A4
:101920002F6D64696F2F656E65742F66736C5F65CC
:101930006E65745F6D64696F2E63000010B50446B8
:101940002046FFF7B9FD0002FAD510BDF0B581B011
:1019500006681C46304615460F46FFF7EFFC30463A
:1019600039462A460123009400F09CFD3046FFF7DB
:10197000E5FF3046FFF7E2FC002001B0F0BD0000BB
:1019800080B5FFF76FFD80BD006C80B2704700002E
:101990002DE9F04182B0E9B10546406810F0407F82
:1019A00015D00C464FF0407804E000BF686810F096
:1019B000407F0CD0C5F80480E669002EF6D0276A77
:1019C00028462146002200230097B047EEE702B0E8
:1019D000BDE8F08142F6302042F69D21C0F20100C0
:1019E000C0F2010140F6835201F086FF80B500206D
:1019F000C4F20C0000F046F9BFF34F8F80BD000029
:101A00002DE9F04F87B0002A019061D102EB42002E
:101A1000069101EB8001884658F8080F474637F8D1
:101A2000062F00EBC20030F9022F002A4DD401F13D
:101A30002402059201F12A02049201F12C02DDF840
:101A400010A008F10804039201F12E0201F112091D
:101A5000029216E0FFF730FC21880139218000F066
:101A600009FE3888B9F80010FFF7D6FED8F8001044
:101A7000388001EBC00030F9021F4FF0FF32914275
:101A800023DD218809B300880005E3D50598BAF85D
:101A90000060D0F800B0039801883046FFF7BCFE24
:101AA0000699AAF80000CD690298002D4FF00001B8
:101AB0000170CFD006990198D1F820C00BEB8603B6
:101AC0000122CDF800C0A847C4E707B0BDE8F08FF9
:101AD00042F67E1042F69D21C0F20100C0F20101E3
:101AE00040F61F0201F008FF416A41F00101416226
:101AF000704700002DE9F0470C46496B002945D09E
:101B00008046A07E58B34FF000091FFA89F554F8BB
:101B100035707FB304EBC50000F1060A002600BF54
:101B2000216A636B5FFA89F240469847D0B17860CA
:101B3000788840F400407880BAF80010B0B2FFF71F
:101B40006BFE064654F83500002E00EBC607E7D1C1
:101B500009F10109A07E1FFA89F18142D5D3002045
:101B6000BDE8F0874046214600F028F84FF47A603F
:101B7000BDE8F08742F63F2042F69D21C0F2010009
:101B8000C0F2010140F2B13201F0B6FE42F69D21F1
:101B900003A0C0F2010140F2A63201F0ADFE00BF89
:101BA00068616E646C652D3E727842756666416C44
:101BB0006C6F6320213D204E554C4C002DE9F04FB9
:101BC00081B00C46896B002944D08146A07E90B339
:101BD0004FF0000A07E000BF0AF1010AA07E1FFAD9
:101BE0008AF1814227D21FFA8AF854F838702FB34D
:101BF00004EBC80000F1060B00260BE0BBF8001058
:101C0000B0B2FFF709FE064654F83800002E00EB8C
:101C1000C607E1D078680028F0D07968226AA56B01
:101C20005FFA8AF34846A84700207860788800F475
:101C300000507880E2E701B0BDE8F08F42F63F2027
:101C400042F69D21C0F20100C0F2010140F2E532EE
:101C500001F052FE42F69D2103A0C0F2010140F2C4
:101C6000DB3201F049FE00BF68616E646C652D3E99
:101C70007278427566664672656520213D204E5534
:101C80004C4C000010B50446FFF7ECFB4DF6D0506D
:101C9000C2F200000268002A08BF10BD4DF6A45031
:101CA000C2F2000001682046904710BD2DE9F04FB8
:101CB0008BB0002900F00881002A00F01181DDF8C6
:101CC00050B0BBF1000F40F017810446D0F88400FB
:101CD000C0F30D400438984204D240F6A5700BB012
:101CE000BDE8F08F0BEB4B0001EB8007384650F856
:101CF00008AF0D46099030F8041F0AEBC1090A909D
:101D00004E4636F9020F002877D4069105EB0B01F9
:101D100011F8300F07F124080891CDF8088070B150
:101D20004046CDF81CA09A46904600F015FC42466D
:101D3000DDF808805346DDF81CA000285DD005EBD7
:101D40004B0101975F4631F8160F169F9842079492
:101D500058D206910198DDF828B0069E00F11201D4
:101D600010304FF0000A05910390049315E000BF76
:101D700007981499A244FFF7CDFA0998DDF828B026
:101D80000068BBF80010424600EBC109B9F9020037
:101D90004FF0FF31049B88422FDDD9F804400599AC
:101DA000BBF800000988A3EB0A0590460AEB02077E
:101DB000FFF732FDABF800003288204639469542E5
:101DC00052D9FEF77FFC308847F2FF71A9F8000076
:101DD0003488B9F80200084000F50040A9F8020074
:101DE000089800780028C3D0FFF766FA039A118894
:101DF0000131118000F03EFCBAE740F6A6700BB04E
:101E0000BDE8F08FD9F8040011461A461C46FEF7CB
:101E100059FC06982AF83040308840F40840308059
:101E20000A9C019E2088718AFFF7F6FC08992080A1
:101E30000978079C149D00293ED0D8F80020308DE9
:101E4000B18D42F82070FFF7E7FC718D3085884234
:101E500004BF012086F82E00FFF72EFA318A0131E7
:101E6000318200F007FC27E02A46FEF72BFCA9F898
:101E70000050B9F80200149D40F40840A9F802008F
:101E80000898079C0078B8B10298019E0268308DCE
:101E9000B18D169B42F82030FFF7BEFC718D308566
:101EA000884204BF012086F82E00FFF705FA318A28
:101EB0000131318200F0DEFB20462946FFF72AFA85
:101EC00000200BB0BDE8F08F42F6302042F69D2195
:101ED000C0F20100C0F2010140F2217201F00CFDDC
:101EE00042F6232042F69D21C0F20100C0F201011A
:101EF00040F2227201F000FD42F67E1042F69D2172
:101F0000C0F20100C0F2010140F2247201F0F4FCC1
:101F100010B50C46FFF7A6FA4DF6CC50C2F2000001
:101F20000460552000F0AEFB10BD00002DE9F04F1D
:101F300081B09A4691468B468046FFF793FA584601
:101F400000218422FEF7E8FB99F8163083B30020C5
:101F5000002100220AEB80039C883AF82050B9F84F
:101F600008706543BD425CD90BEB4206B4823AF877
:101F700020400BEB00079D68FC801F7E4BF8005053
:101F80000BEB02052F76DF88DC68F7820BEB41074D
:101F90005E88BC605C7EDB6901327B6299F816303A
:101FA00006319A4200F108007E826C76BE85D1D35C
:101FB00009F118070A988BF81A308ECFCBE907374A
:101FC000CBE90D12CBF87C0099F8070010F00C0F4C
:101FD0004DF6A450C2F20000C0F800B006D042F2A4
:101FE000D141C0F20001404600F03EFA99F80700E6
:101FF000800706D041F69111C0F20001404600F082
:1020000067F9B9F8060046F27C01084206D041F2B1
:102010009931C0F200014046FFF77AFF01B0BDE8F8
:10202000F08F42F6D22042F69D21C0F20100C0F2AC
:10203000010140F2D31201F05FFC00000A6812BAFD
:10204000C0F8E4204A790979120442EA0161C0F833
:10205000E81070472DE9F0470446D0F8248008685E
:102060004FF0804707EA407700F0010947EAC93797
:102070000D46B1F808C047EA491700F0040147EAE5
:10208000812100F0080741EA4701082707EA1017F5
:1020900001EB070A870540F2000740F2000EC0F28C
:1020A000F257C3F6FF7E58BF0EEA0C4795F80AC0F8
:1020B00044F20401BCF1010F08BF44F20411514481
:1020C000EE7A0F4395F80CA0002E08BF47F4007776
:1020D000BAF1000F08BF47F002074FF0010E394672
:1020E0006EF30101BCF1010F08BF3946C60558BFA8
:1020F0003946C4F88410D4F8C470194627F48273A2
:102100004FF4807707EA0017BAF1000F18BF0437C1
:102110003B44C4F8C430AF7BB9F1000FC4F8C071C0
:1021200095F80DC0C4F8C4C108D02E8AC4F8EC607C
:10213000AE7CEB7C63F31446C4F89461800605D44E
:102140004FF48070C4F84401002005E06B7D287DC9
:1021500003F03F03C4F8443117F0180FC4F890019E
:102160001CBF4FF48070C4F844011CF0060F1CBF64
:102170000020C4F89001D2E90230C4F88401C4F808
:1021800080319088C4F888012046FFF757FF204629
:10219000FFF73CFB30B928680899C0F3801220464D
:1021A00000F0A4F869682046FFF7D8F848F4817079
:1021B0006062BDE8F08700002DE9F04F81B0002893
:1021C00053D000295DD0827D002A42D04FF0000E0E
:1021D0004FF4004C4FF0000807E000BF827D08F18B
:1021E0000108904501F1200133D2B1F80490B9F112
:1021F000FF0F31D98C68002CF0D00D6915B98269B8
:10220000002AEBD00B88002BE8D0B1F800B0D0F852
:1022100018A05E460022BBF1010F98BF012604E022
:1022200001324D4496425B46D8D0BAF1000F24F8F3
:1022300032E004D104EBC2077D60A7F802C0013B85
:102240009A42EDD104EBC2035F8847F400575F80E8
:10225000E6E701B0BDE8F08F42F69D210FA0C0F285
:10226000010140F2593201F047FB42F67E2042F66E
:102270009D21C0F20100C0F2010140F2493201F09B
:102280003BFB42F6692042F69D21C0F20100C0F2FC
:10229000010140F24A3201F02FFB00BF6275666611
:1022A0004366672D3E72784275666653697A65416A
:1022B0006C69676E203E3D20454E45545F52585F25
:1022C0004D494E5F42554646455253495A450000D6
:1022D00010B50C46FFF7C6F84DF6D050C2F200001C
:1022E0000460542000F0CEF910BD000080B54DF21E
:1022F0000003A1F1010CC1F212339C4527D244F630
:102300003F33C0F24C0301EB030C4CF66B23C6F6D3
:102310005F33ACFB033C4CF60023C3F69A33B3FBAC
:10232000F1F1CCF3455C01F10903B3FBF1FE7E232F
:1023300003EB4C034FF4E06103F07E0301EB0E214D
:1023400001F4E06162F3C7131944416480BD42F6B1
:102350009D2103A0C0F2010140F2D54201F0CCFA68
:1023600028737263436C6F636B5F487A20213D2052
:102370003055292026262028737263436C6F636BC7
:102380005F487A203C3D20333230303030303030BE
:10239000552900002DE9F04F83B000284BD00029CB
:1023A00055D0827D002A43D0837D4FF000084FF442
:1023B000806900204FF0000A019307E0DDE9013059
:1023C0000AF1010A9A4501F1200131D2CC68002CB2
:1023D000F6D0D1F814B04A88BBF1000F18BF5846A8
:1023E000002AEDD04D88B1F806E02E460023012DDD
:1023F00098BF0126029004E0013370449E422A46B1
:10240000DCD0BBF1000FA2F101021CBF04EBC3073B
:10241000786004EBC30C934224F83380ACF802904C
:10242000EAD1BCF8022042F40052ACF80220E3E703
:1024300003B0BDE8F08F42F67E2042F69D21C0F247
:102440000100C0F201014FF4427201F055FA42F668
:10245000692042F69D21C0F20100C0F2010140F264
:10246000093201F049FA000010B50C46FEF7FAFFF8
:102470004DF6D450C2F200000460532000F002F97F
:1024800010BD000003F0030C4FF4F80303EA82428E
:1024900061F3DB5242EA0C7141F0804141F40031BA
:1024A0000164704780B503F0030E4FF4F803BDF8E4
:1024B00008C003EA824261F3DB5202EB0C0141EAFD
:1024C0000E7141F0804141F40031016480BD000093
:1024D0002DE9F04182B049B30546406810F0406FE5
:1024E00021D00C464FF0406809E000BF2846214645
:1024F0000022FFF785FA686810F0406F13D0686813
:10250000C5F80480000103D594F830000028EDD10F
:10251000E669002EEFD0276A2846214601220023D3
:102520000097B047E7E702B0BDE8F08142F63020FF
:1025300042F69D21C0F20100C0F2010140F647526F
:1025400001F0DAF980B50020C4F20C0000F00AF8BE
:10255000BFF34F8F80BD0000807AB0FA80F0400951
:102560007047000010B50446FEF77CFF4DF6D450CE
:10257000C2F20000026832B14DF6A450C2F200006F
:10258000016820469047BFF34F8F10BD2DE9F043FF
:1025900081B099B31746EAB31E46002B46D0DDF84A
:1025A0002080B8F1000F4DD00546B87D022855D2E5
:1025B0000C46DDF8249038463146FFF7EBFE3846EE
:1025C0003146FFF7F9FD2846394632464346CDF8F5
:1025D0000090FFF73FFD284621463A463346CDF8A6
:1025E0000090FFF7A3FC606B00280FBF0020284677
:1025F0002146FFF77FFA01B0BDE8F08342F63020B4
:1026000042F69D21C0F20100C0F201014FF4837235
:1026100001F072F942F67E2042F69D21C0F20100DF
:10262000C0F2010140F2071201F066F942F669209A
:1026300042F69D21C0F20100C0F201014FF4847204
:1026400001F05AF942F68D2042F69D21C0F20100B8
:10265000C0F2010140F2091201F04EF942F6B71042
:1026600042F69D21C0F20100C0F2010140F20B12BE
:1026700001F042F980F310887047000080F3108861
:102680007047000080B501F023F980BD002818BF15
:1026900042F6AF707047000070B584B000284ED08D
:1026A0000D46002956D00446A87B06285AD26E460D
:1026B000304600F0C5FFD5E90020297A0090084691
:1026C000032918BF0020022908BF0846697A8DF83F
:1026D0000400481EB0FA80F0A97A40098DF8050080
:1026E000002918BF0121E87A8DF80C10002818BFC6
:1026F0000120297B8DF80B00002918BF0121687B80
:102700008DF80810002818BF01208DF80900A87B5B
:1027100041F63861C0F2010151F820004FF4807198
:10272000ADF80610314600F0D5FF18B1FFF7AEFF47
:1027300004B070BDA87B2070002004B070BD42F6CC
:10274000914042F65C41C0F20100C0F20101E12279
:1027500001F0D2F842F65C4108A0C0F20101E22289
:1027600001F0CAF842F6174042F65C41C0F201009F
:10277000C0F20101E32201F0BFF800BF636F6E6693
:102780006967000080B560B1B9B112B3007841F655
:102790003863C0F2010353F8200001F087F80020ED
:1027A00080BD42F6914042F65C41C0F20100C0F2A9
:1027B00001014FF4AA7201F09FF842F2BA7042F69A
:1027C0005C41C0F20100C0F2010140F2551201F07B
:1027D00093F842F2B14042F65C41C0F20100C0F20F
:1027E00001014FF4AB7201F087F8000080B58168F9
:1027F0000968884780BD000080B5D0F808C0DCF8C3
:1028000008C0E04780BD000080B5D0F808C0DCF803
:1028100004C0E04780BD000045F20001C4F206019B
:102820000A7802F0F00210430870704745F2000188
:10283000C4F206010A78007802F05F0210430870C3
:102840007047000080B58268D268904780BD000064
:1028500080B583685B69984780BD000080B5826859
:102860001269904780BD000080B582681268904769
:1028700080BD000010B582B002294DD2022A54D288
:102880000446DBB151B3012A5BD14FF4C242D4E913
:102890000010019200224FF4C243FFF7B5FF60BB66
:1028A000D4E9001001AB1F22FFF7A6FF28BB019A55
:1028B0002168606842F004031F2229E0D4E9002067
:1028C00001ABA9B111461F22FFF796FFA8B9019AE3
:1028D0002168606822F004031F2219E04FF482434C
:1028E000012A08BF4FF4C243D4E9001001930EE05F
:1028F00011460022FFF780FF08B102B010BD019819
:1029000020F48042D4E90010019242F400730022C6
:10291000FFF77AFF02B010BD41F6C1610DA0C0F211
:1029200001014FF4897200F0E7FF41F6A96041F61A
:10293000C161C0F20100C0F2010140F2131200F0C7
:10294000DBFF41F6C16109A0C0F201014FF49572AD
:1029500000F0D2FF6D6F6465203C3D206B504859FC
:102960005F52656D6F74654C6F6F70007370656555
:1029700064203D3D206B5048595F5370656564315C
:1029800030304D0010B582B099B10C460022D0E92C
:102990000010227001AB0122FFF72EFF08B102B038
:1029A00010BD9DF80410890644BF0121217002B0BA
:1029B00010BD41F6057041F6C161C0F20100C0F2E0
:1029C0000101982200F098FFB0B582B00D46114386
:1029D00020D0D0E90010144601AB1E22FFF70CFFF7
:1029E00008B102B0B0BD3DB1019901F00301023957
:1029F000B1FA81F149092970002CF2D0019901F056
:102A000007010539012901D8012100E000212170C9
:102A100002B0B0BD41F6C16102A0C0F20101C62200
:102A200000F06AFF2128287370656564203D3D2011
:102A30004E554C4C2920262620286475706C6578EC
:102A4000203D3D204E554C4C2929000010B582B048
:102A500081B10C46D0E9001001AB0122FFF7CCFE9A
:102A600008B102B010BD9DF80410C1F380012170BF
:102A700002B010BD41F6057041F6C161C0F201001F
:102A8000C0F20101AD2200F037FF0000F0B581B0C7
:102A9000044640680D4600210091FFF7A7FE286814
:102AA0004FF47A776E462060D4E900100222334654
:102AB000FFF7A2FE68B9013F02D000982228F3D1A7
:102AC0004FB1D4E9001000224FF40043FFF79CFE01
:102AD00020B101B0F0BD012001B0F0BDA87988B1EE
:102AE000D4E90010042240F2E113FFF78DFE002824
:102AF000EFD1D4E9001000224FF49053FFF784FE89
:102B000001B0F0BD2879022819D2D4E900106B4633
:102B10000022FFF771FE0028DBD10098002220F48C
:102B20008063D4E900100093FFF76EFE0028D0D137
:102B300029796A79204600F025F801B0F0BD41F608
:102B4000C16103A0C0F20101762200F0D5FE00BFF2
:102B5000636F6E6669672D3E7370656564203C3DEA
:102B6000206B5048595F53706565643130304D00BB
:102B700080B5D0E9003094460A4619466346FFF70F
:102B80003BFE80BD70B582B0022920D20E460446BD
:102B9000D0E90010154601AB0022FFF72DFE08B169
:102BA00002B070BD0198012E20F4405008BF00F51E
:102BB000005020F48853012D08BF40F48073D4E9FD
:102BC000001000220193FFF71FFE02B070BD41F616
:102BD000A96041F6C161C0F20100C0F20101F0221A
:102BE00000F08AFE80B5D0E9003094460A461946C6
:102BF0006346FFF709FE80BD00281FBF00884AF228
:102C00000001C4F20401088018BF704702A004A1AB
:102C100040F2111200F070FE636F6E66696700008B
:102C20002E2E2F2E2E2F2E2E2F2E2E2F2E2E2F2EBF
:102C30002E2F646576696365732F4D4B36344631AC
:102C4000322F647269766572735C66736C5F706F45
:102C500072742E680000000050F8213062F30A23DD
:102C600040F8213070470000000000000000000024
:102C7000EFF30980BFF36F8F154B1A681EF0100F2A
:102C800008BF20ED108A20E9F04F10602DE90900FF
:102C90004FF0200080F31188BFF34F8FBFF36F8F89
:102CA0000DF000FF4FF0000080F31188BDE809002F
:102CB00019680868B0E8F04F1EF0100F08BFB0ECBC
:102CC000108A80F30988BFF36F8F704700BF00BF81
:102CD000FC830020B0B5D0F800E08446002100203D
:102CE00005E000BF96460B46D907194623D1724628
:102CF00012F8013FA3F12004102C4FF00103F3D888
:102D0000DFE804F00D0C0C090C0C0C0C0C0C0C1076
:102D10000C130C0C160040F01000E3E7E4E740F061
:102D20000400DFE740F00200DCE740F00100D9E7F3
:102D300040F00800D6E7CCF800E0B0BD02680146DC
:102D4000104610F8013F6C2B0CD0682B16D112F8EE
:102D5000023F682B18BF02464FF0400008BF2020FA
:102D60000A60704712F8023F6C2B18BF02464FF002
:102D7000800008BF4FF480700A60704700200A602E
:102D800070470000F0B503688446002A1CBF00208D
:102D900010701D4615F8010F2E2827D14FF0000E98
:102DA000012400202B460CE000EB800006EB4000E5
:102DB000002AA0F1300018BF1470BEF1000F1D46AC
:102DC00015D113F8016FA6F13007092FECD92A2E7F
:102DD00008D10868002A00F104050D600068ECD0F5
:102DE0001470EAE74FF0010E2B46E6E70620CCF818
:102DF0000030F0BD702804BF102070476F2804BF5A
:102E000008207047622814BF0A2002207047000083
:102E100000290BD4900747BF01202B2102F00400AA
:102E2000C10058BFC2F380001970704701202D21E6
:102E30001970704710B54FF0000E4FF0000C08E00D
:102E40000EEB8E0302EB4302A2F1300EBCF1000F39
:102E500014D103685A1C02605A78A2F13004092C7C
:102E6000EED92A2A06D10A68131D0B60D2F800E0B9
:102E7000ECE700BF4FF0010C0360E7E7704610BDC0
:102E8000692803D064281CBF0020704701207047C8
:102E900040F0200066280CBF012000207047000091
:102EA000A0F1620113294FF0000088BF7047012292
:102EB00002FA01F146F20102C0F20802114218BF03
:102EC0000120704740F0200078280CBF012000202E
:102ED000704700002DE9F04F81B00D9CDDE90B65D6
:102EE0001F46914682460007884610D45FEACA70A2
:102EF0001BD1A8EB0903284621462022B047A7B1E1
:102F0000284621463A460123B04700270DE02FB15D
:102F1000284621463A460123B0470027A8EB09037B
:102F2000284621463022B047C146DDF828B027B1F7
:102F3000284621463A460123B0479BF8000050B18D
:102F4000ABF10107C2B2284621460123B04717F86A
:102F500001090028F6D15FEACA7005D0A8EB090381
:102F6000284621462022B04701B0BDE8F08F00007E
:102F70002DE9F04F83B00F9CDDE90D759346804637
:102F800000078A46CDE9011312D45FEAC8700DD15B
:102F900018F0100918BF0BF1020BAAEB0B0328461F
:102FA00021462022B847B9F1000F1ED100262CE09F
:102FB0005FEAC86001D400260FE01E46284621467D
:102FC00030220123B8477822284621460123002ECB
:102FD0004FF0010618BF5822B847AAEB0B0328464A
:102FE00021463022B847D3460FE0284621463022FA
:102FF00001230126B8470298782200282846214656
:103000004FF0010318BF5822B847DDF830905FEA4F
:10301000C86011D586B92846214630220123B84719
:10302000029878220028284621464FF0010318BF55
:103030005822B8470BF1020B99F8000058B1A9F1DA
:10304000010600BFC2B2284621460123B84716F840
:1030500001090028F6D15FEAC87006D00198214620
:10306000A0EB0B0328462022B84703B0BDE8F08F41
:10307000074B19680868B0E8F04F80F30988BFF380
:103080006F8F4FF0000080F31188704700BF00BFC2
:10309000FC830020B0B5A9B10546A8B10C4628466E
:1030A00000211422FDF738FB207A012828701CBF6C
:1030B00043F22150B0BDE16805F10C0000F05EF86C
:1030C000B0BD00BFFEE700BFFEE70000F0B581B075
:1030D00050B10D4651B10446FEF7F4F8616806465A
:1030E00029B143F222570AE0FEE700BFFEE7284677
:1030F0000021042265600027FDF70EFB2C6030469E
:10310000FFF7BCFA384601B0F0BD0000B0B588B199
:103110000D4689B10446FEF7D5F8A1680131A160DA
:10312000FFF7ACFA284600210422FDF7F5FA00204B
:103130002C60B0BDFEE700BFFEE7000080B503785D
:10314000012B12BF43F221500C3000F027F880BD54
:1031500080B538B141B14AB1006848B1FFF7EEFF20
:1031600080BD00BFFEE700BFFEE700BFFEE700BF77
:10317000FEE7000080B5FFF7EBFF80BD51B158B10D
:1031800080B5FFF789FA0028BDE8804008BF704786
:10319000FEE700BFFEE700BFFEE7000030B139B137
:1031A00042B180B5FFF7EEFA80BD00BFFEE700BF79
:1031B000FEE700BFFEE700002DE9F04F9BB01D4683
:1031C0001A9100210FAE07920F91CDE90A111990C3
:1031D000059308E01A98073020F0070008301A908D
:1031E0000BF102001990199C2278252A0AD0002A96
:1031F00000F05281079831460123A847601C1990BE
:10320000F1E700BF19AC2046B146FFF763FD1AAEE7
:10321000074620463146FFF70DFE06902046314610
:103220000DF12702FFF7AEFD06462046FFF786FDAB
:10323000DDF864B040EA0708594611F801AF50467E
:103240001991FFF71DFE01280ED15FEAC8504E46C6
:1032500024D45FEA08601A9850F8041B1A904FEAC9
:10326000E1700C9124E000BF50463446FFF710FE99
:1032700001284E46AED05046FFF724FE012839D132
:103280005FEAC8504AD45FEA08601A9850F8041BF5
:103290001A904FF00000CDE90A104AE01A98073062
:1032A00020F00700014651F8082B40681A910C9253
:1032B0000DF143040D9020460CA901220A23012799
:1032C0000097FDF7CFFE0746DDE90C0142460DF100
:1032D0003B03E519FFF79CFD3A180095059D0798FB
:1032E0009DF83B3006990195029040460396FFF702
:1032F000F1FD75E75046FFF7D3FD012835D1BAF14E
:10330000700F3FD11A980AAF50F8041B04221A908C
:103310000891384608A9FDF7D5F989E01A980730D1
:1033200020F00700014651F8082B40681A91CDE9BA
:103330000A200DF143040AA9BAF1780720464FF09C
:1033400000024FF0100318BF01270097FDF78AFE17
:1033500002462044CDE900050798069902904046B0
:103360003B460396FFF704FE3AE7BAF1730F17D016
:10337000BAF1630F4AD11A98314610F8042B1A900B
:10338000079846E05FEAC85046D45FEA08601A989A
:1033900050F8041B1A904FF00000CDE90A1046E0E7
:1033A0001A9850F804ABBAF1000F1A903FF418AF16
:1033B0009DF82700274618B95046FDF7B6F907468D
:1033C00018F0010805D106983146C31B0798202242
:1033D000A8479DF827109AF8000000293FD0012F38
:1033E0004EDB00284CD0AAF1010500BFC2B20798FD
:1033F0003146059E0123B047022FA7F101073EDBAE
:10340000A878013500284E46F0D139E007983146BA
:1034100052460123A847E3E61A98073020F0070038
:10342000014651F8082B40681A91CDE90A200AAFED
:103430005046FFF7DFFC0DF14304034620463946B2
:10344000002201270097FDF70DFE02462044CDE93A
:1034500000050798069902904046002346E788B188
:10346000A946AAF1010500BFC2B20798314601235F
:10347000C847A87801350028F6D14D4602E04E46EF
:10348000059DE71BB8F1000F3FF4AAAE0698314640
:10349000C31B07982022BDE70F981BB0BDE8F08F33
:1034A00080B54FF0200080F31188BFF36F8FBFF31A
:1034B0004F8F0EF0E7F830B14EF60450CEF2000018
:1034C0004FF080510160002080F3118880BD000022
:1034D00080B54EF68850CEF20000016841F47001CC
:1034E000016042F20E00C4F205004CF2205101804E
:1034F0004DF6281101804FF4E97120F80E1C00F000
:1035000001F880BD7047000080B540F23000C2F283
:10351000000002684DF6D850C2F2000001684AF27D
:103520000000C4F206009047BFF34F8F80BD00003B
:1035300080B5FFF7E9FFBFF34F8F80BD80B540F244
:103540003000C2F2000002684DF6D850C2F200000E
:1035500041684BF20000C4F206009047BFF34F8F62
:1035600080BD000080B5FFF7E9FFBFF34F8F80BD3E
:1035700080B540F23000C2F2000002684DF6D8502B
:10358000C2F2000081684CF20000C4F206009047CD
:10359000BFF34F8F80BD000080B5FFF7E9FFBFF399
:1035A0004F8F80BD80B540F23000C2F2000002684B
:1035B0004DF6D850C2F20000C1684DF20000C4F2CE
:1035C00006009047BFF34F8F80BD000080B5FFF726
:1035D000E9FFBFF34F8F80BD80B540F23000C2F2EB
:1035E000000002684DF6D850C2F2000001694AF2AC
:1035F0000000C4F20E009047BFF34F8F80BD000063
:1036000080B5FFF7E9FFBFF34F8F80BD80B540F273
:103610003000C2F2000002684DF6D850C2F200003D
:1036200041694BF20000C4F20E009047BFF34F8F88
:1036300080BD000080B5FFF7E9FFBFF34F8F80BD6D
:10364000B0B568B10021102204460025FDF764F8EA
:103650004FF4E1304FF0807184E823002573B0BD52
:1036600042F67E2042F65631C0F20100C0F201015E
:1036700040F28F1200F040F90146002008A200BF7E
:1036800052F820308B4208BF704701300628F7D12E
:1036900042F6563108A0C0F201018E2200F02CF94A
:1036A00000A0064000B0064000C0064000D0064022
:1036B00000A00E4000B00E40696E7374616E6365C9
:1036C000203C20756172744172726179436F756E2E
:1036D00074000000F0B581B0002900F0A780044616
:1036E00008680D46002800F0AC80A4F18041A1F5E7
:1036F000D4214FEA31314AF200030429C4F20E0307
:1037000003D25FA757F8217003E0FF279C4208BF50
:103710000127AE79B742C0F09C800429042903D266
:1037200057A353F8217003E0FF279C4208BF0127ED
:10373000EB799F42C0F09880042948F21F51C5F2EE
:10374000EB11A0FB01134FEA0011B2FBF1F74FEAB6
:103750004201B1FBF0F6B2EB001FB1FBF6F138BF4E
:103760000127421A38BF0A1A580900EB400082426A
:1037700003D940F2F53001B0F0BD2046FFF77CFFE1
:1037800041F65461C0F2010151F82000FDF714F92F
:10379000E07806F01F0100F0F300E070207800F000
:1037A000E00040EA172020706770A07A00F0E00087
:1037B0000844A072A078A97A00F0E80061F38200C2
:1037C00029796A79AB79EF7941EA0006002918BFB7
:1037D00046F01000A070207800F0DF0062F3451082
:1037E0002070E3746775207C40F088002074607C52
:1037F00040F0C0006074287A18B1607B40F0080087
:103800006073687A18B1607B40F001006073E07803
:10381000E97A2A7B002918BF40F00800002A18BF67
:1038200040F00400E070002001B0F0BD42F67E20C0
:1038300042F65631C0F20100C0F20101D72200F079
:103840005BF842F6563112A0C0F20101D82200F016
:1038500053F842F6D13042F65631C0F20100C0F2C0
:103860000101DA2200F048F842F68B3042F6563178
:10387000C0F20100C0F20101DB2200F03DF800BF00
:103880000800000008000000010000000100000026
:10389000636F6E6669672D3E62617564526174651F
:1038A0005F42707320213D203055000052B100BFAF
:1038B00090F90430B3F1FF3FFADC11F8013B013A13
:1038C000C371F5D101794906FCD50020704700008D
:1038D00000F01F00012101FA00F04EF20811CEF2B3
:1038E0000001086070470000E421C0F2E00161F3CC
:1038F0001F2060210170704713460A46014602A04E
:10390000FDF788FC00BEFDE7415353455254204566
:1039100052524F52202220257320223A2066696C91
:10392000652022257322204C696E652022256422A1
:10393000200A0000F0B581B0E8B30646044656F808
:10394000140FD0B30F46D1B312B138A007F016FA56
:103950002078A16A04F042FEE0B30546476007F014
:10396000A1F8384607F09CFD3046294607F0CCFA0E
:10397000D8B36C6800212046002607F063FD20467E
:1039800000210AF055FB204600210AF055FE204692
:103990000021002209F01CFD2046002108F0B2F8A9
:1039A00005F110006E6007F08BFA28462E6104F0D6
:1039B00059FFFF2436E0FA2434E0FA2432E06FF0B5
:1039C0000C0004F007F90146304607F09DFAA0B15B
:1039D000FA2427E06FF00C0004F0FCF801463046B2
:1039E00007F092FA88B1FF241CE0A36AABB120462D
:1039F000002100220024984714E0A36A7BB12046EE
:103A0000002100229847FA240CE0A36A4BB120461B
:103A1000002100229847FF2404E0002402E0FA2459
:103A200000E0FF2460B201B0F0BD00BF65787065B2
:103A30006374206E6577706362203D3D204E554C67
:103A40004C206F7220657272203D3D204552525FBE
:103A50004F4B0000B0B582B000284CD0056A044638
:103A6000002D4AD0A96A00206882481C48F68900C7
:103A7000C8F688000CD01E31A1FB001251094FF688
:103A8000FF73994238BF5309002B08BF0123AB8253
:103A9000E96A4A1C0DD01E31A1FB001251094FF6F4
:103AA000FF73994238BF5309002B08BF01236B8174
:103AB000EB81296B4A1C0DD01E31A1FB0001480986
:103AC0004FF6FF72904238BF4A09002A08BF012210
:103AD000AA812A82A8896989013880B288423CBFBC
:103AE00000206881E879C00712D195F91C000028F0
:103AF00010D4FF2015E019A000E012A0FDF78AFB0A
:103B000041F66470C0F20100FDF784FB02B0B0BD65
:103B1000286A06E0C0B2C02834BF4FF6FF706FF0CD
:103B20007F400190686A0A210090284601F06CF8F5
:103B300005F11C0101AA6B46204605F025FB02B0E9
:103B4000B0BD00BF646863705F62696E643A2064F0
:103B500068637020213D204E554C4C0064686370B2
:103B60005F62696E643A206E6574696620213D204B
:103B70004E554C4C0000000010B548F2EC30C2F23B
:103B80000000046801E000BF2468002C08BF10BDDD
:103B9000206A0028F8D041790029F5D0818A69B1DE
:103BA000428A013293B28B42428207D1204600F012
:103BB00075FE204601F032F82468E6E7018A39B143
:103BC0000139018204D1204601F0B4F82468DCE711
:103BD000C1890029D8D00139C181D5D1204601F051
:103BE0008FF8D1E72DE9F04381B000286ED00C4664
:103BF000002976D09146074636204FF49A714FF44B
:103C00002072984605F0BEFB002875D00546408915
:103C100080084C2802D83BA007F0B0F8B9F1030F98
:103C200002D1607903280BD1A079002840F20C0062
:103C3000C2F2000002D10168013101600068206019
:103C40006E68002130464FF49A72FCF765FD40F231
:103C50000110308097F82C102068B17003F0FAFA48
:103C6000A9F10701022970600AD3B9F1040F07D046
:103C7000B9F1030F06D1607900F0FE00042801D1EC
:103C80007868F06007F126001B2100BF421812F887
:103C90001B2C7318013121295A70F7D148F2632087
:103CA000C6F2533006F1F004C6F8EC0000202146BD
:103CB0003522012300F0E0F921464A4600F0F4F9EC
:103CC000B8F1000F18BFA8F8000016E025A0FDF716
:103CD000A1FA41F66470C0F20100FDF79BFA0025DD
:103CE0000BE018A0FDF796FA41F66470C0F20100EF
:103CF000FDF790FA002500E00025284601B0BDE858
:103D0000F08300BF646863705F6372656174655FB0
:103D10006D73673A20636865636B20746861742013
:103D2000666972737420706275662063616E2068C4
:103D30006F6C642073747275637420646863705F61
:103D40006D736700646863705F6372656174655F5B
:103D50006D73673A206468637020213D204E554C96
:103D60004C000000646863705F6372656174655F36
:103D70006D73673A206E6574696620213D204E554B
:103D80004C4C000010B540F23C14C2F20004207804
:103D900010B909A006F0F2FF207801380106207062
:103DA00018BF10BD40F23814C2F2000420680CF0B5
:103DB0004FF90020206010BD646863705F7063621B
:103DC0005F726566636F756E7428293A2072656646
:103DD000636F756E74206572726F72002DE9F04327
:103DE00083B0046A80460020E0612046062100F08E
:103DF0000BFF0DF10A03404621460122FFF7F2FEB8
:103E000000284AD041688146BDF80A0001F1F00758
:103E100039463922022300F02FF9B8F82420394618
:103E2000ADF80A0000F0A2F9394637220323ADF8B5
:103E30000A0000F021F941F6A8464FF0FF35C0F224
:103E40000106ADF80A0000BF7119BDF80A004A78F2
:103E5000394600F029F90135022DADF80A00F3D1F9
:103E6000BDF80A0039464A4600F0B0F940F2381071
:103E7000C2F20000006841F6CC4741F6D042C0F2E1
:103E80000107C0F2010249464323CDF800800197A3
:103E90000CF09CF9484605F081FDA0794FF47A7149
:103EA000FF281CBF0130A071A07940F2F3128140BD
:103EB00012FA81F144F6D352C1F26202A1FB02125E
:103EC0007821062838BF5109218103B0BDE8F0836D
:103ED00010B548F2EC30C2F20000046801E000BF07
:103EE0002468002C08BF10BD206A0028F8D0018982
:103EF000022903D3013924680181F2E70129EFD1B6
:103F000001390181204600F02FFFE9E770B540F24A
:103F10003D16046AC2F200060020F2782062606258
:103F200040F24815002AC2F200051CBFE868A062F2
:103F3000307908B1286901E0A06A40087279E0622E
:103F40000AB1686903E0A06AC0EBC000C008206342
:103F5000B0790969E16138B1A86903F07BF9E179C9
:103F6000206241F0010002E0E07900F0FE00E07123
:103F7000F079002808BF70BDE86903F06BF9606252
:103F800070BD000010B50446006A0C2100F03CFE34
:103F900041F6CC41C0F2010120460A460B4605F02D
:103FA000F3F82046FFF71AFF10BD000070B540F28D
:103FB0003D12C2F200029278002A08BF70BD04468A
:103FC000066A40F24810C2F2000080680D460021E7
:103FD000318103F03FF92969C6E90601204600F066
:103FE00041FD70BD70B540F23C15C2F20005287865
:103FF00028BB40F23816C2F20006306810B114A097
:1040000006F0BCFE0BF0B8FF3060F0B1417A41F62B
:10401000CC4441F02001C0F2010441722146442207
:104020000BF05CFD3068214643220BF0B7FD306891
:1040300044F2A571C0F2000100220BF0E7FF2878DE
:1040400001302870002040B270BDFF2040B270BD2A
:10405000646863705F696E635F7063625F726566F8
:10406000636F756E7428293A206D656D6F727920C3
:104070006C65616B00000000F0B581B00646184425
:1040800002301C46154645280F4605D342F6C300AC
:10409000C0F2010006F072FE701CB11C82B2BD5568
:1040A00088B2BC5401B0F0BD70B514460546442832
:1040B0000E4602D303A006F061FE681C80B2745560
:1040C00070BD00BF646863705F6F7074696F6E5F0E
:1040D000627974653A206F7074696F6E735F6F7583
:1040E000745F6C656E203C20444843505F4F5054D1
:1040F000494F4E535F4C454E0000000070B51446CA
:10410000064641280D4602D309A006F037FE200ED0
:10411000711CA855200CB21C89B26854200A92B2B6
:10412000F11CA854301D89B280B26C5470BD00BF20
:10413000646863705F6F7074696F6E5F6C6F6E67D9
:104140003A206F7074696F6E735F6F75745F6C6522
:104150006E202B2034203C3D20444843505F4F507C
:1041600054494F4E535F4C454E00000070B5144605
:10417000064643280D4602D305A006F0FFFD200A9F
:10418000711CA855B01C89B280B26C5470BD00BFC0
:10419000646863705F6F7074696F6E5F73686F726D
:1041A000743A206F7074696F6E735F6F75745F6CB3
:1041B000656E202B2032203C3D20444843505F4F09
:1041C0005054494F4E535F4C454E000080B59446C5
:1041D000421C93B24FF0FF0E432B01F800E00AD8C7
:1041E0004FF0000E013290B201F803E0442803F1D1
:1041F0000103F7D3581EF13081B2604605F06CFC24
:1042000080BD00002DE9F04F89B040F23D18C2F2A8
:1042100000080446404600210822FCF77DFA608928
:104220002C2801D2FE26B3E1A446002C00F0AF8179
:10423000BCF808900122F02003920022029264460A
:10424000628983B2934207D32468801A002CA9EBB9
:104250000209F5D199E100BF65680E46CDF810C09E
:1042600009E0DDF810C000BFFE264FF0010ABAF1E8
:10427000000F40F08D81002C00F0558181B21FFAB3
:1042800089F2914280F04F816A5CFF2A00F04B81F5
:104290004FF6FB7302339BB29942E5D867894B1CFA
:1042A000BB42CDE9066501D22B4404E02368002B14
:1042B00000F04D805B681F783B2A00F24C804FF085
:1042C000FF3A13469346DFE812F053003C004600E5
:1042D0004B004600460046004600460046004600A9
:1042E000460046004600460046004600460046009E
:1042F000460046004600460046004600460046008E
:10430000460046004600460046004600460046007D
:10431000460046004600460046004600460046006D
:10432000460046004600460046004600460046005D
:10433000B300B800C100C800460046004600CD00EA
:10434000D200042F40F09E804FF0060A93E0002731
:104350003B2A7FF6B4AF4FF0FF3A4FF0000B06E078
:10436000032F40F28F804FF0070A4FF0040B3B46BB
:10437000002A00F0858019444FF6FD72914201D960
:10438000FE2680E0BBF1000F01F1020101917ED019
:10439000023005900020089007E000BFFA20069048
:1043A0000020B846002800F09380BAF1080F02D32D
:1043B0007AA006F0E3FC18F80A00002840F082809A
:1043C00047465FFA8BF84546B8F1040F28BF04252D
:1043D000059808A986B220462A46334605F0BAF960
:1043E000854256D1B8F1050F55D35FEA88704FF07A
:1043F0000105D3D10898B84607F80A5002F02AFF01
:1044000040F24811C2F2000141F82A004FF6FB7059
:104410008642ABF1040B03D9FE2006900020C1E7D1
:1044200005980AF1010A043005901E250120B9E71C
:10443000042F27D14FF0030A1DE0079D012F24D13F
:10444000039BDB0721D04FF0000A14E0012F4FF04F
:10445000010A10D0079DFA2609E7042F12D14FF068
:10446000020A08E0042F0DD14FF0040A03E0042FE4
:1044700008D14FF0050A3B46BB46002A7FF47BAFCC
:10448000421C2EE0FA26079DEFE6FA26EDE6019A99
:1044900027E0FE2019E0B8F1010F06D0B8F1040FB3
:1044A00012D1089802F0D6FE01E09DF8200001210B
:1044B00007F80A1040F24811B846C2F2000108900D
:1044C00041F82A00002503E0FA2006900125B846AD
:1044D000019A35B1AA46DDF810C0DDE9066510463F
:1044E000C5E6618990B2079D884205D2DDF810C00B
:1044F0004FF0000A10460FE0501AA9EB010982B2F2
:104500001FFA89F18A42BFF4ACAE2468DDF810C00E
:1045100024B165684FF0000A069EA8E6FA264FF01F
:10452000010A0024A3E698F8000090B140F2481078
:10453000C2F2000001680020012988F8000009D0BB
:10454000032910D0022904D101210120029110B9C0
:104550000EE0012060B10298F0B100212C204FF054
:104560006C09029107E00120029000200028F2D19E
:104570006C204FF0EC0900210391BCF1000F314693
:104580004FF0FE067FF45BAE02E0FE2600E0FE2662
:1045900070B209B0BDE8F08F0026F9E76368656383
:1045A0006B206465636F64655F6964780000000078
:1045B0002DE9F04383B0046A80462046042100F0D0
:1045C00023FB0DF10A03404621460322FFF70AFBB5
:1045D000002845D041688146BDF80A0001F1F00786
:1045E000394639220223FFF747FDB8F8242039461F
:1045F000ADF80A00FFF7BAFD394637220323ADF8BC
:104600000A00FFF739FD41F6A8464FF0FF35C0F22A
:104610000106ADF80A0000BF7119BDF80A004A781A
:104620003946FFF741FD0135022DADF80A00F3D1FF
:10463000BDF80A0039464A46FFF7C8FD40F2381077
:10464000C2F20000006841F6D042C0F201024946C1
:104650004323CDF800800BF02DFD484605F09EF970
:10466000A0794FF47A71FF281CBF0130A071A079A6
:1046700040F2F312414312FA81F144F6D352C1F2EF
:104680006202A1FB021214210A2838BF51092181BC
:1046900003B0BDE8F08300002DE9F04383B0046A65
:1046A00080462046032100F0AFFA0DF10A03404690
:1046B00021460322FFF796FA002857D04168814629
:1046C000BDF80A0001F1F007394639220223FFF74D
:1046D000D3FC39464FF41072ADF80A00FFF746FDDF
:1046E000394632220423ADF80A00FFF7C5FC05461F
:1046F000E069ADF80A5002F0ADFD024628463946A1
:10470000FFF7FCFC394637220323ADF80A00FFF718
:10471000B3FC41F6A8464FF0FF35C0F20106ADF8F4
:104720000A0000BF7119BDF80A004A783946FFF740
:10473000BBFC0135022DADF80A00F3D1BDF80A002B
:1047400039464A46FFF742FD40F23810C2F20000F7
:10475000006841F6D042C0F2010249464323CDF839
:1047600000800BF0A7FC484605F018F9A0794FF43B
:104770007A71FF281CBF0130A071A07940F2F312BA
:10478000414312FA81F144F6D352C1F26202A1FB15
:10479000021214210A2838BF5109218103B0BDE853
:1047A000F0830000F0B581B045F2DC60C2F2000099
:1047B000456817462E6A002E6AD03079002867D0E7
:1047C00078892C2864D3D7F804C09CF800100229FB
:1047D0005ED195F82C1099B105F126010CF11C025F
:1047E000002300BF08781478A04251D1042B07D8C9
:1047F00095F82C0001330131834202F10102F1D31B
:10480000DCF8040002F026FD3168884240D13846C9
:10481000FFF7F8FCE0BB40F23D10C2F20000407828
:10482000B0B340F24810C2F2000000797968022863
:1048300028D0062810D005282AD17079021F022A14
:1048400017D3032801D0012822D12846FFF75EFBA9
:104850002846FFF7FFF81BE07279052A10D80123DC
:1048600003FA02F212F03A0F0AD02846FFF78AFB49
:104870000EE02846FFF74AFB2846FFF7EBF807E073
:10488000022805D17079062802D12846FFF78EFB51
:10489000384605F083F801B0F0BD00002DE9F04185
:1048A00084B0046A054606F075FA002C5FD0607982
:1048B00000285CD0A06903900020C4E90600C4E988
:1048C0000800C4E90A002063C4F81200C4F80E000E
:1048D000284600F0FDF900283FD02046002100F0D6
:1048E00093F90DF10A03284621460722FFF77AF9CA
:1048F00048B341680646BDF80A0001F1F008414698
:1049000036220423FFF7B8FB07460398ADF80A7078
:1049100002F0A0FC024638464146FFF7EFFB414655
:104920003246ADF80A00FFF751FC40F23810C2F2EF
:104930000000006803AA3146432300950BF0BAFB40
:10494000304605F02BF841F6CC41C0F20101284673
:104950000A460B4604F018FC03E02046002100F054
:1049600053F9207918B1FFF70DFA0020207104B037
:10497000BDE8F0812DE9F04383B0046A804606F07B
:1049800009FA2046052100F03FF90DF10A034046DF
:1049900021460322FFF726F9002845D041688146C9
:1049A000BDF80A0001F1F007394639220223FFF76A
:1049B00063FBB8F824203946ADF80A00FFF7D6FBB0
:1049C000394637220323ADF80A00FFF755FB41F6BD
:1049D000A8464FF0FF35C0F20106ADF80A0000BF4F
:1049E0007119BDF80A004A783946FFF75DFB0135B9
:1049F000022DADF80A00F3D1BDF80A0039464A4647
:104A0000FFF7E4FB40F23810C2F20000006804F146
:104A1000180249464323CDF800800BF04BFB0546B6
:104A2000484604F0BBFF00E0FF25A0794FF4FA618F
:104A3000FF281CBF0130A071A07940F2F31241435E
:104A400012FA81F144F6D352C1F26202A1FB0212C2
:104A500028210A2838BF510968B2218103B0BDE876
:104A6000F08300002DE9F04383B0002800F0A1801E
:104A7000D0F820900546B9F1000F00F09C80484620
:104A8000012100F0C1F80DF10A032846494603222E
:104A9000FFF7A8F800286DD041688046BDF80A00ED
:104AA00001F1F007394639220223FFF7E5FAAA8C13
:104AB0003946ADF80A00FFF759FB39463222042384
:104AC000ADF80A00FFF7D8FA0646D9F81C00ADF891
:104AD0000A6002F0BFFB024630463946FFF70EFB84
:104AE000394636220423ADF80A00FFF7C5FA064618
:104AF000D9F81800ADF80A6002F0ACFB0246304667
:104B00003946FFF7FBFA394637220323ADF80A008E
:104B1000FFF7B2FA41F6A8444FF0FF36C0F20104A5
:104B2000ADF80A00A119BDF80A004A783946FFF726
:104B3000BBFA0136022EADF80A00F3D1BDF80A0027
:104B400039464246FFF742FB40F23810C2F20000FD
:104B5000006841F6CC4741F6D042C0F20107C0F2EE
:104B6000010241464323009501970BF02FFB40467D
:104B700004F014FF99F806004FF47A71FF281CBF67
:104B8000013089F8060099F8060040F2F3128140DE
:104B900012FA81F144F6D352C1F26202A1FB021271
:104BA0007821062838BF5109A9F8081003B0BDE8DC
:104BB000F0830EA000E006A0FCF72CFB41F6647029
:104BC000C0F20100FCF726FB03B0BDE8F08300BF94
:104BD000646863705F73656C6563743A20646863CE
:104BE0007020213D204E554C4C00000064686370DD
:104BF0005F73656C6563743A206E65746966202125
:104C00003D204E554C4C000042798A4208BF704707
:104C1000417100218171018170470000B0B50446E7
:104C200006F0B8F82CB194F82D00C00710D11FA0E1
:104C300003E041F66770C0F20100FCF7EBFA41F6C1
:104C40006470C0F20100FCF7E5FAF02040B2B0BD9C
:104C5000A08CB0F5107F15D3256A2DB128790028D6
:104C600018BFFFF78FF805E0342003F06DF948B165
:104C700005462062284600213422FBF74DFDFFF750
:104C8000B1F910B1FF2040B2B0BD94F82D00012160
:104C90004007297104D428460221FFF7B5FF02E03E
:104CA0002046FFF79BF8002040B2B0BD6E657469E6
:104CB00066206973206E6F742075702C206F6C6491
:104CC000207374796C6520706F72743F000000006F
:104CD000002804BF00207047016A0020002908BF97
:104CE000704749790439CAB2072A01F07F014FF0B1
:104CF000430238BF012022FA01F10840704700004A
:104D000010B5046A61790A2988BF10BD012202FA30
:104D100001F140F2224211420AD0FFF72BFEA08996
:104D2000618A401A0228A2BF00EBD0704008E081DF
:104D300010BD000010B5046A61790A2988BF10BD52
:104D4000012202FA01F140F2324211420AD0FFF789
:104D50002FFCA08A618A401A0228A2BF00EBD07003
:104D60004008208210BD000010B50446006A417959
:104D700001390B2988BF10BDDFE801F00A2211229A
:104D800022062222222222062046FFF727F810BD03
:104D9000807905280AD82046FFF764FE10BD807987
:104DA00001280AD82046FFF777FC10BD2046FFF700
:104DB00075FD2046FFF732FF10BD2046FFF70EF8C5
:104DC00010BD0000B0B50C468907054602D006A00C
:104DD00005F0D4FF05F092FFE9680A6822600C60D4
:104DE00005F0C2FFB0BD00BF6D656D705F66726596
:104DF000653A206D656D2070726F7065726C7920F8
:104E0000616C69676E656400B0B5044605F076FFB5
:104E1000E16805460C685CB12068A207086002D012
:104E200006A005F0ABFF284605F09EFF2046B0BD6A
:104E3000284605F099FF0020B0BD00BF6D656D707C
:104E40005F6D616C6C6F633A206D656D7020707280
:104E50006F7065726C7920616C69676E65640000C3
:104E60002DE9F04784B00646054656F8040B9046F7
:104E70000F46002431463A464346CDE900440294A9
:104E8000FCF714FF40F6A679484514D14FF0FF3ADD
:104E9000D5E9220101220023CDF800A00BF0B0FEDD
:104EA000286831463A464346CDE900440294FCF76F
:104EB000FDFE4845ECD004B0BDE8F087F0B581B008
:104EC00004460D4628B942F2B000C0F2010005F0D8
:104ED00055FF05F013FF94F820200021677842F079
:104EE00001026160257284F82020617005F03CFFAA
:104EF000A36A1BB12046042100229847A36A1BB174
:104F00002046002100229847A36A1BB120460221B7
:104F100000229847284602F05DFE214651F8102FE6
:104F200006461AB10846314605F0EEFF204650F815
:104F3000141F11B1314605F0E7FF042F27D80120D7
:104F4000B84010F01A0F22D094F8200000F0FB01B6
:104F5000400784F820101FD4606A28B942F29600F6
:104F6000C0F2010005F00AFF606A391F066856F8B2
:104F70000C2F18BF2946017112B908A005F0FEFEDA
:104F800000206062304606F035F801B0F0BD606A7E
:104F900010B109A005F0F2FE01B0F0BD696E7661B6
:104FA0006C6964206F705F636F6D706C65746564AD
:104FB0005F73656D00000000636F6E6E2D3E63755C
:104FC0007272656E745F6D7367203D3D204E554C67
:104FD0004C0000002DE9F04F85B082460A20049075
:104FE00040F2440B0A20039201910023C2F2000B0D
:104FF000002600224FF0000E4FF0000C0A244FF064
:105000000A0802900BEB0300017DA5B20A2D08BF30
:1050100000291BD081B3BAF1000F09D0DAF8005093
:105020004768BD4204D1039FD7B18568BD4217D000
:1050300001290FD15BF80310408AA9B1049960459A
:1050400028BF3146049128BF844615E04FF001097E
:10505000344613E0408A904224BFB04602460BE03B
:105060004FF00009009609E00299704528BF3146CB
:10507000029128BF864600BF4FF00109B9F1000F29
:1050800020D01833F02B06F10106BBD1019A4FF660
:10509000FF71900717D4D00702D1A0B20A2812D00E
:1050A00020B20A2829DB0FFA88F009280FDC00EB70
:1050B00040005BF8300000281CBF1FA005F05EFE1A
:1050C00044460CE0009908B205B0BDE8F08F029CA0
:1050D00020B20A2803DB049C20B20928F3DC0FFA73
:1050E00084F8B8F10A0F05DB42F65210C0F2010055
:1050F00005F044FE404600F041F826B20A2E05DBDA
:1051000042F65210C0F2010005F038FE06EB4600F0
:105110000BEBC006307D039D10B10DA005F02EFEF7
:10512000BAF1000F1CBFDAF80000706000202146C1
:105130007082B560C7E700BF6172705F7461626CB6
:10514000655B695D2E71203D3D204E554C4C000045
:105150006172705F7461626C655B695D2E7374610E
:105160007465203D3D204554484152505F535441A1
:1051700054455F454D5054590000000010B540F2B1
:10518000440200EB4001C2F2000252F8310002EB8F
:10519000C10418B104F002FC00202060002020753A
:1051A0006082C4E9010041F6C640C0F20100016816
:1051B0008088E160208210BD2DE9F04F87B00D4658
:1051C000044605F0E7FD002D51D066683088B0F543
:1051D000807F46D13079062843D17079042840D1A8
:1051E000708808283DD10DF1180B06F10E015846C4
:1051F0000422FBF767FA06F1180105A80422FBF761
:1052000061FAAA465AF8047F0599B7FA87F0C91BD4
:1052100018BF0121069A400906F10809049250EAD4
:1052200001084FF00103284659464A4618BF022399
:1052300000F0F4FAF088B0F5807F08BFB8F1000FF5
:105240000FD10498B8420CD005F1260106A8022718
:10525000029028464A460B46CDE900A9039700F084
:1052600005FA204604F09AFB07B0BDE8F08F41F63E
:105270006770C0F20100FBF7CDFF03A0FBF7CAFF88
:1052800007B0BDE8F08F00BF0D0A000070B584B014
:1052900016460C46054605F07DFD5DB194B1CEB1D4
:1052A0003068294601F0E0F8D8B141F6C043C0F2B9
:1052B00001032AE041F66770C0F2010005F05EFDCF
:1052C000002CECD142F66510C0F2010005F056FD4D
:1052D000002EE5D142F66F10C0F2010005F04EFD40
:1052E000DEE7306800F0F001E0291AD10120717882
:1052F000ADF808005E208DF80A0001F07F0071888B
:1053000002AB8DF80B00ADF80C1005F126024FF43E
:10531000006628462146009600F062FB40B204B0C9
:1053200070BD81B24FF6A96291421EBFD5E901124C
:10533000484010EA020040D140F2567CC2F2000C14
:105340009CF8002040F2440102EB4203C2F200014B
:1053500001EBC303187D02280BD39868A84208D13B
:1053600030685B68984204D12846214600F02CF84A
:10537000D4E701F11402002105E000BF01310A2940
:1053800002F1180213D010780228F7D352F80C0C4F
:10539000A842F3D1306852F8103C9842EED18CF814
:1053A0000010CAB22846214600F00EF8B6E728469B
:1053B0003146224600F05EF8B0E72E4656F80C0F54
:1053C0000028B9D1FC20A9E7F0B581B040F2440330
:1053D00002EB4202C2F2000303EBC206374617F8A3
:1053E000142F0C46012A054602D816A005F0C6FC6B
:1053F0003878022818D1708AB0F58E7F07D9311D10
:10540000284600F0B5F978B9032038700CE0B0F503
:10541000877F09D3311D06F10C02284600F0B0F950
:10542000002804BF0320387005F1260206F10C03A2
:105430004FF4006728462146009700F0D1FA01B0EA
:10544000F0BD00BF6172705F7461626C655B617218
:10545000705F6964785D2E7374617465203E3D20D1
:105460004554484152505F53544154455F53544151
:10547000424C45002DE9F04F81B00F4609680546C2
:1054800008462946904600F0EFFF08B1F02605E0F7
:105490003868F026002818BF002F03D170B201B081
:1054A000BDE8F08F00F0F000E028F7D03846012189
:1054B0002A46FFF78FFD0446B0F1FF3F65DDA0B23D
:1054C0007F2802D354A005F059FC5FFA84FA4FEA12
:1054D0004A0040F2440150FA84F0C2F2000101EBAC
:1054E000C00B1BF8149FB9F1000F07D101208BF8F6
:1054F00000000AEB4A0001EBC00085609BF8000049
:1055000010B949A005F03AFCB8F1000F18BFB9F185
:10551000000F5BD12846394600F02AF9064680B9CB
:10552000B9F1000F0DD09BF80000012809D140F21D
:1055300044010AEB4A00C2F2000101EBC000002165
:105540004182B8F1000FA9D0B8F1000F42D09BF80A
:10555000000002281BD340F25670C2F2000040F255
:10556000440104700AEB4A00C2F2000101EBC000E2
:1055700005F1260200F10C034FF40067284641466E
:10558000009700F02DFA064688E7264686E70128B0
:105590007FF484AF40F24406B8F1000FC2F2000677
:1055A00010D02BA4454668892989884204D12868EF
:1055B00010B1204605F0E2FB287B400611D42D688F
:1055C000002DF0D1404604F009FB11E0FF26B8F1B0
:1055D000000FBCD142F66510C0F2010005F0CEFB11
:1055E000B5E70E204FF42071424604F073F8804670
:1055F000B8F1000F0DD00AEB4A0156F8310006EB66
:10560000C104002818BF04F0C9F90026C4F80080BE
:1056100044E7FF2642E700BF74797065206F766526
:1056200072666C6F770000006172705F7461626C0B
:10563000655B695D2E7374617465203D3D20504546
:105640004E44494E47206F7220535441424C45000E
:105650006E6F207061636B6574207175657565731D
:1056600020616C6C6F776564210000002DE9F04FBC
:1056700081B01C46904606460D4628B941F6677033
:10568000C0F2010005F07AFB0E201C214FF42072BD
:1056900003F078FE00284BD007464089DDF83490AF
:1056A0001B2802D825A005F069FBDDF82CB0D7F83F
:1056B00004A0484601F0D0FD96F82C10AAF8060088
:1056C000062905D042F61110C0F2010005F056FB84
:1056D0000AF1080021460622FAF7F4FF0AF1120047
:1056E00059460622FAF7EEFF0A990AF10E00042243
:1056F000FAF7E8FF0C990AF118000422FAF7E2FF22
:1057000040F20010C0F20800CAF8000040F2064063
:10571000AAF8040040F60604304639462A464346B5
:10572000009400F05DF9384604F038F9002000E0FC
:10573000FF2040B201B0BDE8F08F00BF6368656331
:105740006B2074686174206669727374207062756E
:10575000662063616E20686F6C6420737472756379
:1057600074206574686172705F6864720000000084
:1057700080B541F6C042C0F2010200F001F880BDE0
:1057800010B584B000F1260341F6C64400F1040CC4
:105790004FF0010EC0F2010402911946CDE900C498
:1057A000CDF80CE0FFF762FF04B010BDF0B581B09A
:1057B00040F24400C2F2000000F114050024022669
:1057C000042707E02046FFF7D9FC01340A2C05F135
:1057D000180520D028780028F7D035F8021C4A1C7C
:1057E00091B28B084A2B25F8022CEBD8012801D165
:1057F0000529E7D2012805D004280AD0032808BFCC
:105800002F70E2E755F80C0CA5F11001FFF7B0FF7F
:10581000DBE72E70D9E701B0F0BD00002DE9F041C3
:1058200082B0054690F82C001E46144606280F4606
:1058300002D020A005F0A2FA2FB1386818B129468D
:1058400000F012FE10B102B0BDE8F081386800F03F
:10585000F000E028F7D0384631462A46FFF7BAFB79
:105860000028F0D440F2440800EB4006C2F20008E1
:1058700008EBC6070220387507F10C002146062206
:10588000BD60FAF71FFF58F836600020002E7882BE
:10589000D9D0386005F126024FF40067284631461A
:1058A0002346009700F09CF8304604F077F802B0E9
:1058B000BDE8F0816E657469662D3E687761646449
:1058C000725F6C656E203D3D204554485F485741EE
:1058D0004444525F4C454E00B0B582B0069C012A4C
:1058E000E5690BD042BB2868FBF72CFD204600F091
:1058F000FDF92868FBF72CFD02B0B0BD0020019037
:10590000EFF30582D5E92201A2B101AA0BF06CF9EF
:10591000012811D1019801280ED14EF60450CEF283
:1059200000004FF080510160BFF34F8FBFF36F8FC6
:1059300002B0B0BD0BF008F902B0B0BD70B50C46B6
:10594000054605F027FA68890F283ED3E87B18B989
:1059500094F830000130E873686801788689CA07D6
:1059600016D0012908D1417891B980785E280FD1ED
:10597000687B40F010000AE041F6C041C0F201012E
:105980000622FAF7D9FE18B9687B40F00800687360
:10599000B6F5C16F10D0082E17D194F82D0000076E
:1059A00013D528460E2104F035F970B92846214652
:1059B00000F092FE002070BD94F82D00000704D581
:1059C00028460E2104F026F920B1284603F0E6FF10
:1059D000002070BD28462146FFF7EEFB002070BD79
:1059E0002DE9F04381B00C460899054608469946D2
:1059F000904601F031FC064620460E2103F084FC5F
:105A000008B1FE2018E005F0C5F967684946384638
:105A10000622BE81FAF756FEB81D41460622FAF765
:105A200051FE95F82C00062802D005A005F0A6F935
:105A3000AA6928462146904740B201B0BDE8F083EC
:105A40006E657469662D3E6877616464725F6C652B
:105A50006E206D757374206265203620666F72202B
:105A600065746865726E65745F6F757470757421A6
:105A700000000000B0B540F258750446C2F20005BF
:105A800040F64010C2F2000044F2D04140F67012DD
:105A900044F2F04305F1900CC2F20001C2F20002A0
:105AA000C2F200038CE80F00002000F0ABF8E369BD
:105AB00002462046294600F0ADF8B0BD2DE9F0477A
:105AC00096B0054640F2F050C0F2F0508A4605907C
:105AD000D1E924019146DAF89C20CDE906010024A1
:105AE00040F20110D9F80010CDE908420B94ADF84E
:105AF000280048680521C0F20301D0F804800CA8F2
:105B00000491FBF793FC45F62D70C0F20000129053
:105B100046F22900C0F20000012613900DF10F0299
:105B20000DF10E03504649468DF84660159500F07C
:105B300071F99DF80F009DF80E108DF83B008DF85F
:105B40003C100AF0F3FFCAF888000D98CAF88C6080
:105B500040F062600D9045F6D900C0F2000014904C
:105B60000020C4F20C0000BFF10727460CD0DAF881
:105B70000010012481424FF00006F5D15420FDF7BA
:105B8000B3FE5320FDF7B0FEF80702D015A005F0D4
:105B9000F5F8DAF8980046F2C1030AF190010A22FA
:105BA000C0F20003002700BF41F8203F4860013ADF
:105BB00000F5BE600F72CD60F6D1DAF8000005F195
:105BC00026020AF1040100920CAA04ABCDF804806D
:105BD000FBF73AFEDAF80000FBF784FB16B0BDE8ED
:105BE000F08700BF496E7075742045746865726EE9
:105BF00065742062617365206572726F72210000A6
:105C0000704700000021002804BF0021C4F20C01ED
:105C100008467047F0B581B01C46174605460E464B
:105C2000A0B3DCB346F66560E88545F28D20C0F28E
:105C3000000045F6955105F11402C0F2000143C27F
:105C40003046FFF7DDFF07603046FFF7D9FF0068F9
:105C500010B91BA005F092F8062085F82C0005F17C
:105C60002600211D0622FAF72DFD95F82D1040F291
:105C7000DC50A88441F00E0085F82D0028463146FE
:105C80002246FFF71BFF002001B0F0BD41F6677010
:105C9000C0F2010005F072F8002CC3D101A005F09C
:105CA0006DF8BFE765746865726E65746966436F09
:105CB0006E66696720213D204E554C4C0000000067
:105CC0002A65746865726E657469665F656E657471
:105CD0005F7074722865746865726E657469662990
:105CE00020213D204E554C4C00000000B0B504462C
